:03097D00020980EC
:06097100E4F538C29722F4
:03098000D29722E9
:10091D001209717FC812089D1209807FC812089DA7
:02092D0080EE5A
:0308C800014000EC
:10090900E54060FC1209717FC812089D120980E454
:04091900F54080EC39
:0609770012098602098C42
:03098300C29122FC
:03098600D29122E9
:03098900C29022F7
:03098C00D29022E4
:1008A6001209837FC812089D1209867FC812089D07
:1008B6001209897FC812089D12098C7FC812089DEB
:0208C60080DED2
:03098F00D2AF22C2
:03099200C2AF22CF
:1007C4001208F41208DF12093F12097D1209771288
:1007D400098F1209711209831209897FC812089DB1
:0907E40012098612098C02098039
:1007ED001207C4E54024FD600C146011240370F35E
:1007FD001201888003120725E4F54080E61206DB1E
:05080D00E4F54080DE6F
:1008CB00013700013900013800023A0000043C00F6
:0308DB000000001A
:03099500D2A922C2
:03099800C2A922CF
:03099B00D28C22D9
:03099E00C28C22E6
:0E093F00438901E4F58CF58A12099502099BA3
:03000B000202539B
:10025300C0E0C0F0C083C082C0D075D000C000C071
:1002630001C002C003C004C005C006C007758C00EE
:10027300758A0020B212E53CB40108753C02754052
:1002830003800E753C018009E54064036003753CFF
:100293000020B312E53DB40108753D0275400180AD
:1002A3000E753D018009E54064016003753D002042
:1002B300B412E53EB40108753E02754004800E7524
:1002C3003E018009E54064026003753E00D3E53BCF
:1002D3009400E53A94004008053BE53B7002053A7B
:1002E300E537D3940040021537E539D39400400233
:1002F3001539E538D394004006D53803120980D068
:1003030007D006D005D004D003D002D001D000D04E
:0A031300D0D082D083D0F0D0E032C9
:1008DF0075985075C83075CBFF75CAFA75CDFF7511
:0508EF00CCFAD2CA2280
:080003008F993099FDC299228A
:08095B003098FDC298AF99220B
:10063400C298E59912014A1201042FFF740129F9A5
:10064400E43AFA75370222AD267B017A007900126A
:1006540003C3EF640122A3F07B017A00790022AB8B
:1006640034AA35A93690000402011D900002E0640A
:100674003022C298E59912014A020104AB2FAA3034
:05068400A93102010490
:07096300C2967F0A02088121
:07096A00D2967F0A0208810A
:10092F0012096A7F3212089D1209637FFA02089D2D
:1008F4001208DF12096A7E007F1A7D007B007A00ED
:05090400790802015C0E
:0803BB007B017A0079007D0549
:1003C300E4FFFEFC8D37C298309811C298E599B4CA
:1003D3004D07744D120638800A7F0022E53770E816
:1003E3007F0222309811C298E599B45807745812C5
:1003F3000638800A7F0022E53770E87F02223098B2
:10040300051206348007E53770F47F022230980D19
:10041300120676FD2FFFAC051206408007E5377004
:10042300EC7F0222E4FEEEC39C50123098051206C4
:10043300348007E53770F47F02220E80E930980C90
:10044300120676B507037F01227F0022E53770EDA0
:020453007F0226
:010455002284
:0A031D008F2D8D2E8B2F8A30893131
:10032700E4F532F5338B348A358936E52ED394805C
:1003370040037F00227F4D120003744D2533F533B0
:100347007F5812000374582533F533AF2D1200037D
:10035700E52D2533F533AF2E120003E52E2533F5B2
:1003670033E4F532E532C3952E501D120680FF1295
:1003770000031206802533F53374012531F531E486
:100387003530F530053280DCAF33120003AB34AAC9
:1003970035A9367D051203C38F32E532B401091240
:1003A7000663B401037F0122120663B402037F00D0
:0303B700227F02A0
:0103BA002220
:02056E008B26DA
:10057000E4FE9000007440F0A3EFF0ED12065A7D07
:10058000037F1012031DEF640160037F0022120637
:100590004B702512066F701DA3E0B40218A3E0B4DF
:1005A0004013A3E0B43108120971753806800C902D
:1005B0000005E0FF227F00227F002212064B701808
:1005C000900002E0B4300EA3E0B40209A3E0B4400E
:0A05D00004A3E0FF227F00227F0059
:0105DA0022FE
:080456008B248A2589268D27DD
:10045E009000007444F0E4A3F0A3F0A3F074D01263
:10046E00065A7D057F1012031DEF640160037F00A5
:10047E0022AD2712064D702112066F7019A3E0B43B
:10048E000214A3E0B4440FA3E0B43108120971754D
:10049E0038068008802F7F00227F002212065CAD76
:1004AE0027120653702B12066F7023900004E0B4CF
:1004BE00441CA3E0FEB43913900007E0AB24AA2538
:1004CE00A92612014A900005E0FF22AF06227F0006
:0304DE00227F007A
:0104E10022F8
:100764007522467B007A0079227D017F1012031DD9
:10077400EF640160037F00221203BBBF01149000E9
:1007840002E0B4300DA3E0B40208A3E0B446037F52
:0407940001227F00BF
:01079800223E
:100689008D299000007464F0A3E52AF0A3E52BF00E
:10069900A3E529F0FF7E0078047C007D011200DECD
:1006A900E5292404FD12065C7F1012031DEF640185
:1006B90060037F00221203BBBF0114900002E0B463
:1006C900300DA3E0B40208A3E0B464037F01227FE4
:0206D9000022FD
:0805DB008B268A2789288D294F
:1005E300752C629000007462F0A3E52AF0A3E52B5A
:1005F300F0A3E52912065B7D047F1012031DEF644F
:100603000160037F00221203BBEF64017020120616
:100613006F701B900004E0B46214AF297E00A82819
:10062300AC27AD267A0079051200DE7F01227F0018
:0106330022A4
:0E094D007B007A007908E4F52AF52B7D1A224A
:10081200E4F526F5261209711209897F3212089D24
:1008220012098012098C7F3212089D0526E526C323
:04083200940340E10A
:01083600229F
:10083700E4F526F5261209711209837FC812089D6F
:100847001209801209867FC812089D0526E526C36E
:04085700940240E1E6
:01085B00227A
:10079900E4F526F5261209711209831209897FC821
:1007A90012089D12098012098612098C7FC8120845
:0A07B9009D0526E526C3940240DBEF
:0107C3002213
:10085C00E4F526F5261209711209837FC812089D4A
:10086C001209801209867FC812089D0526E526C349
:04087C00940340E1C0
:010880002255
:100725007E007F1A7D007B007A00790812015C1239
:1007350009631209717FC812089D12098012094DBB
:10074500120689EF64016005120799800E1207648D
:0F075500BF0105120812800312079912096A22C8
:1006DB00E4F522F5231209631209717FC812089DF4
:1006EB001209807B007A0079227DFA1204568F233F
:1006FB00E523B43905120812801DE523643A600521
:10070B00E523B43405120837800DE523B433051205
:0A071B00085C800312079902096AC6
:10018800E4F522F523F524F5251209631209717F98
:10019800C812089D1209807B007A007908E4F52AC4
:1001A800F52B7D1A1205DBEF640160028065E4F52A
:1001B80022E522131313541FF523E5225407F524CF
:1001C800C374079524FF74082523F8E6FEA80708DA
:1001D8008002C333D8FCF525C41313135401F52545
:1001E80060070522E522B4D0C8E522B4D0028028F1
:1001F8007BFAAD22E4FF12056E8F25E525B43105A3
:100208001208128018E525B4330512085C8038E519
:10021800257005120799802F120837802A7408253F
:1002280023F8C000E6FFAE247401A806088002C3C4
:1002380033D8FC4FD000F612094D120689EF64013D
:0A0248006005120799800012096A90
:010252002289
:10088100C0D0DFFED0D022C0D0C006C0077E057F19
:10089100641181DEFAD007D006D0D022C0D01188F1
:0508A100DFFCD0D022B5
:030000000204E215
:0C04E200787FE4F6D8FD75814002052902
:10000E00E709F608DFFA8046E709F208DFFA803ED4
:10001E0088828C83E709F0A3DFFA8032E309F608C1
:10002E00DFFA8078E309F208DFFA807088828C8329
:10003E00E309F0A3DFFA806489828A83E0A3F608DD
:10004E00DFFA805889828A83E0A3F208DFFA804CB7
:10005E0080D280FA80C680D4806980F2803380108E
:10006E0080A680EA809A80A880DA80E280CA8033F7
:10007E0089828A83ECFAE493A3C8C582C8CCC5836F
:10008E00CCF0A3C8C582C8CCC583CCDFE9DEE7803F
:10009E000D89828A83E493A3F608DFF9ECFAA9F0BE
:1000AE00EDFB2289828A83ECFAE0A3C8C582C8CC14
:1000BE00C583CCF0A3C8C582C8CCC583CCDFEADE2D
:1000CE00E880DB89828A83E493A3F208DFF980CC8F
:1000DE0088F0EF60010E4E60C388F0ED2402B40488
:1000EE000050B9F582EB2402B4040050AF2323452F
:0600FE00822390005E73F6
:10010400BB010689828A83E0225002E722BBFE02F9
:09011400E32289828A83E493222C
:10011D00BB010CE58229F582E5833AF583E0225097
:10012D0006E92582F8E622BBFE06E92582F8E222E1
:0D013D00E58229F582E5833AF583E49322FB
:10014A00BB010689828A83F0225002F722BBFE0194
:02015A00F3228E
:10015C00EF4E6012EF60010EEDBB010B89828A83BA
:10016C00F0A3DFFCDEFA2289F05007F709DFFCA9C7
:0C017C00F022BBFEFCF309DFFCA9F0221E
:1004EE000207EDE493A3F8E493A34003F68001F230
:1004FE0008DFF48029E493A3F85407240CC8C3330F
:10050E00C4540F4420C8834004F456800146F6DFDD
:10051E00E4800B01020408102040809008C8E47E9D
:10052E00019360BCA3FF543F30E509541FFEE493D2
:10053E00A360010ECF54C025E060A840B8E493A399
:10054E00FAE493A3F8E493A3C8C582C8CAC583CAC4
:10055E00F0A3C8C582C8CAC583CADFE9DEE780BE7C
:0108DE000019
:00000001FF
