:030AA100020AA4A2
:060A8F00E4F53CC29722D1
:030AA400D29722C4
:030A3000011D00A5
:060A9500120AAA020AB0D9
:030AA700C29122D7
:030AAA00D29122C4
:030AAD00C29022D2
:030AB000D29022BF
:030AB300D2AF229D
:10094E0012000E120A4B120A73120AA1120A951203
:10095E000AB3120A8F120AA7120AAD7FC8120A270B
:09096E00120AAA120AB0020AA43E
:1009770012094EE51D24FD600C146011240370F369
:1009870012002680031208B1E4F51D80E612031059
:05099700E4F51D80DE07
:100A3300013B00013C00023D0000043F00000000B8
:030AB600D2A922A0
:030AB900D28C22BA
:0E0A7300438901E4F58CF58A120AB6020AB92D
:03000B0002043BB1
:10043B00C0E0C0F0C083C082C0D075D000C000C087
:10044B0001C002C003C004C005C006C007758C0004
:10045B00758A0020B212E53FB40108753F02751D85
:10046B0003800E753F018009E51D64036003753F32
:10047B000020B312E540B40108754002751D0180E0
:10048B000E7540018009E51D640160037540002075
:10049B00B412E541B40108754102751D04800E7557
:1004AB0041018009E51D64026003754100D3E53EFF
:1004BB009400E53D94004008E53E153E7002153D65
:1004CB00E53BD394004002153BE53B7002C200E5CF
:1004DB003CD394004006D53C03120AA4D007D006A7
:1004EB00D005D004D003D002D001D000D0D0D08220
:0704FB00D083D0F0D0E03205
:050A4300011E00C100CE
:100A6200AE1E051E74002EF582E43400F583EFF00D
:010A72002261
:100A4B0075985075C83075CBFF75CAFA75CDFF75A3
:070A5B00CCFAD2ACD2CA2292
:080003008F993099FDC299228A
:03002300020502D1
:10050200C0E0C083C082C0D075D000C000C002C0AD
:0905120003C004C005C006C007C7
:10051B0020980302059EC298AF99200076E51E70C5
:10052B0011EF644D706D753B1A120A62900085F0E5
:10053B008061E51EB4010BBF5803FE800E751E00D3
:10054B008051E51EC394045009AE1E051E74002E87
:10055B008022900003E0FE2404FDE433FCAB1E7A02
:10056B0000C3EB9DEC6480F87480985012AD1E05AF
:10057B001E74002D120A69900085E02FF08014EE96
:10058B002404FDE433FCEBB50509EAB50405120AB6
:03059B0062D20029
:10059E00D007D006D005D004D003D002D000D0D0E2
:0705AE00D082D083D0E032BF
:1008F000900003E02404F582E43400F583E0FF90E7
:100900000085E022120A9BE53E453D22753D0075BB
:100910003E0222AB12AA13A9140202CB900004E0FB
:030920006401224D
:070A8100C2967F0A020A0B76
:070A8800D2967F0A020A0B5F
:10000E00120A4B120A887E007F1A7D007B007A004E
:05001E0079210202E45B
:060A9B00C200E4F51E227A
:0A076B008F108D118B128A13891470
:10077500E4F515F5168B178A188919E511D39480B8
:1007850040037F00227F4D120003744D2516F51698
:100795007F5812000374582516F516AF1012000382
:1007A500E5102516F516AF11120003E5112516F50E
:1007B50016E4F515E515C39511501D120913FF1221
:1007C50000031209132516F51674012514F514E412
:0F07D5003513F513051580DCAF161200037F00F6
:0107E40022F2
:1007E500750846120A9B7B007A0079087D017F1007
:1007F50012076B12090C200006E53E453D70F71205
:1008050009047002FF221208F0B5070F900002E0FC
:10081500B4300512091C60067F35227F02221209B9
:100825000C200006E53E453D70F71209047002FFF5
:10083500221208F0B50714900002E0B4300A9000C7
:0E08450004E0B446037F01227F35227F0222A9
:100651008D0C9000007464F0A3E50DF0A3E50EF09D
:10066100A3E50CF0FF7E0078047C007D011202A559
:10067100120A9BE50C2404FD7B017A0079007F10AE
:1006810012076B12090C200006E53E453D70F7127A
:1006910009047002FF221208F0B5070F900002E072
:1006A100B4300512091C60067F35227F022212092F
:1006B1000C200006E53E453D70F71209047002FF6B
:1006C100221208F0B50714900002E0B4300A90003D
:0E06D10004E0B464037F01227F35227F022201
:0805B5008B098A0A890B8D0CE9
:1005BD00750F629000007462F0A3E50DF0A3E50ED7
:1005CD00F0A3E50CF0120A9B7B017A0079007D0403
:1005DD007F1012076B12090C200006E53E453D7099
:1005ED00F71209047002FF221208F0B5070F9000F0
:1005FD0002E0B4300512091C60067F35227F02220D
:10060D0012090C200006E53E453D70F712090470F5
:10061D0002FF221208F06F7028900002E064307023
:10062D001D900004E0B46216AF0C7E00A80BAC0A5E
:10063D00AD097B017A0079051202A57F01227F3574
:04064D00227F0222E4
:020A4800C101EA
:10085300900003E0FF2404F582E43400F583E022F2
:10086300E51A131313541FF51BE51A5407F51CC39C
:100873007407951CFF7421251BF8E6FEA8070822C0
:100883007B007A007921E4F50DF50E7D1A22F50837
:10089300C41313135401F50822753D00753E0E224F
:0E08A300FE900085E06E22900002E06430229C
:10099C00E4F50AF50A120A8F120AAD7F32120A2701
:1009AC00120AA4120AB07F32120A27050AE50AC3FA
:0409BC00940340E17F
:0109C0002214
:1009C100E4F50AF50A120A8F120AA77FC8120A274C
:1009D100120AA4120AAA7FC8120A27050AE50AC345
:0409E100940240E15B
:0109E50022EF
:10092300E4F50AF50A120A8F120AA7120AAD7FC864
:10093300120A27120AA4120AAA120AB07FC8120ABC
:0A09430027050AE50AC3940240DB11
:01094D002287
:1009E600E4F50AF50A120A8F120AA77FC8120A2727
:1009F600120AA4120AAA7FC8120A27050AE50AC320
:040A0600940340E134
:010A0A0022C9
:1008B1007E007F1A7D007B007A0079211202E4120A
:1008C1000A81120A8F7FC8120A27120AA41208830A
:1008D100120651EF64016005120923800E1207E52B
:0F08E100BF010512099C8003120923120A882205
:10031000E4F508F509120A81120A8F7FC8120A272C
:10032000120AA49000007444F0E4A3F0A3F0A3F038
:10033000A374D0F0120A9B7B017A0079007D057FBF
:100340001012076B753D00753E02200006E53E4524
:100350003D70F7120A9B900003E0120858FF9000CE
:1003600085E0B5071BE53E453D6015900002E0B411
:10037000300C900004E0B4010512089C8004805AFF
:100380008058200006E53E453D70F7120A9B120892
:10039000531208A37049E53E453D60431208AA7018
:1003A00039EF64027034900004E06444702CA3E0E0
:1003B00024CD6017146019146016240470151208F7
:1003C0009CD201120A8F753C0680081209E6800350
:1003D0001209C120010EC201805D1209238058124A
:1003E00009238053200006E53E453D70F7120A9B25
:1003F000900003E0120858FF900085E06F7035E52B
:100400003E453D602F900002E0B43026900004E0AD
:10041000B4441FA3E024CD600F14601124FA600DD2
:1004200004701412099C800F1209E6800A1209C197
:0A04300080058000120923120A88DB
:01043A00229F
:10002600E4F508120A81120A8F7FC8120A27120AFB
:10003600A45390FB7B007A007921E4F50DF50E7D43
:100046001A1205B5EF64016003020127E4F51A12DE
:1000560008638002C333D8FC1208916007051AE5CD
:100066001AB4D0EBE51AB4D003020127900000744D
:1000760040F0E4A3F0A3E51AF0120A9B7B017A0094
:1000860079007D037F1012076B753D00753E0220D7
:100096000006E53E453D70F7120A9B900003E0120C
:1000A6000858FF900085E0B5071BE53E453D601505
:1000B600900002E0B4300C900004E0B40105120890
:1000C6009C8004805C805A200006E53E453D70F722
:1000D600120A9B1208531208A3704CE53E453D6078
:1000E600461208AA703BEF64027036900004E06482
:1000F60040702EA3E024CD601824FE6019240470FD
:1001060018753D00753E1E120A8F753C06D2018099
:10011600081209E680031209C1200111C201020179
:10012600D11209230201D11209230201D1200006AE
:10013600E53E453D70F7AF3E120003120A9B1208DA
:10014600531208A360030201CEE53E453D607912D5
:1001560008AA7072EF6402706D900004E06440704B
:1001660065A3E024CD6055146057146054240470D0
:100176005A43900412099CE4F51A1208638002C3DC
:1001860033D8FC1208916007051AE51AB4D0EB744F
:1001960021251BF8C000E6FFAE1C7401A8060880E6
:1001A60002C333D8FC4FD000F61208831206518FD3
:1001B60008120003E50864016011800C1209E6804C
:0E01C6000A1209C180058000120923120A885E
:0101D4002208
:100A0B00C0D0DFFED0D022C0D0C006C0077E057F8D
:100A1B0064510BDEFAD007D006D0D022C0D05112D1
:050A2B00DFFCD0D02229
:030000000206DF16
:0C06DF00787FE4F6D8FD75814202072602
:1001D500E709F608DFFA8046E709F208DFFA803E0C
:1001E50088828C83E709F0A3DFFA8032E309F608F9
:1001F500DFFA8078E309F208DFFA807088828C8361
:10020500E309F0A3DFFA806489828A83E0A3F60814
:10021500DFFA805889828A83E0A3F208DFFA804CEE
:1002250080D280FA80C680D4806980F280338010C5
:1002350080A680EA809A80A880DA80E280CA80332E
:1002450089828A83ECFAE493A3C8C582C8CCC583A6
:10025500CCF0A3C8C582C8CCC583CCDFE9DEE78076
:100265000D89828A83E493A3F608DFF9ECFAA9F0F5
:10027500EDFB2289828A83ECFAE0A3C8C582C8CC4B
:10028500C583CCF0A3C8C582C8CCC583CCDFEADE64
:10029500E880DB89828A83E493A3F208DFF980CCC6
:1002A50088F0EF60010E4E60C388F0ED2402B404BF
:1002B5000050B9F582EB2402B4040050AF23234566
:0602C50082239002257364
:1002CB00BB010689828A83E0225002E722BBFE0231
:0902DB00E32289828A83E4932264
:1002E400EF4E6012EF60010EEDBB010B89828A8331
:1002F400F0A3DFFCDEFA2289F05007F709DFFCA93E
:0C030400F022BBFEFCF309DFFCA9F02294
:1006EB00020977E493A3F8E493A34003F68001F2A5
:1006FB0008DFF48029E493A3F85407240CC8C33310
:10070B00C4540F4420C8834004F456800146F6DFDE
:10071B00E4800B0102040810204080900A30E47E34
:10072B00019360BCA3FF543F30E509541FFEE493D3
:10073B00A360010ECF54C025E060A840B8E493A39A
:10074B00FAE493A3F8E493A3C8C582C8CAC583CAC5
:10075B00F0A3C8C582C8CAC583CADFE9DEE780BE7D
:010A4A0000AB
:00000001FF
